:020000040800F2
:10000000700A00200D020008F52B0008E528000802
:10001000F12B00085D0400083532000800000000E4
:10002000000000000000000000000000552C000847
:100030009D05000800000000252C0008892C000800
:1000400027020008270200082702000827020008EC
:1000500027020008270200082702000827020008DC
:1000600027020008270200082702000827020008CC
:1000700027020008270200082702000809050008D7
:1000800027020008270200082702000827020008AC
:100090006104000827020008270200082702000860
:1000A000270200082702000827020008270200088C
:1000B000292D0008392D0008270200082702000812
:1000C000270200082702000827020008270200086C
:1000D000270200082532000827020008270200082E
:1000E000270200082702000827020008000000007D
:1000F0000000000000000000000000000000000000
:10010000000000000000000027020008270200088D
:10011000270200082702000827020008270200081B
:10012000270200082702000827020008270200080B
:10013000270200080000000000000000270200085D
:10014000710400082702000827020008270200089F
:1001500000F002F800F04AF80AA090E8000C82448F
:100160008344AAF10107DA4501D100F03FF8AFF26C
:10017000090EBAE80F0013F0010F18BFFB1A43F085
:10018000010318476C3E00008C3E00000A4410F842
:10019000014B14F00F0508BF10F8015B240908BFDC
:1001A00010F8014B6D1E05D010F8013B6D1E01F8D3
:1001B000013BF9D1641E03D0641E01F8015BFBD141
:1001C0009142E4D37047000000230024002500265C
:1001D000103A28BF78C1FBD8520728BF30C148BFAA
:1001E0000B6070471FB51FBD10B510BD00F0D0F8F3
:1001F0001146FFF7F7FF03F055FB00F0EEF803B4EC
:10020000FFF7F2FF03BC00F0F5F800000948804753
:1002100009480047FEE7FEE7FEE7FEE7FEE7FEE7E8
:10022000FEE7FEE7FEE7FEE704480549054A064B00
:1002300070470000252D00085101000870040020BF
:10024000700A0020700600207006002053EA020C9D
:1002500000F069802DE9F04B4FF00006002B1FBF26
:10026000B3FA83F503FA05F424FA05F65E4012BFEB
:100270001643B2FA82F502FA05F4C5F120051EBF55
:1002800022FA05FC44EA0C04203556EA044C4FEAF5
:10029000144418BF641C4FF000084FF0000990424E
:1002A00071EB030C39D3002919BFB1FA81F701FAB8
:1002B00007F6B0FA80F700FA07F6C7F120071EBF6D
:1002C00020FA07FC46EA0C062037B6FBF4FCA7EB45
:1002D0000507103F07F01F0BCBF120062CFA06F69E
:1002E0000CFA0BFB44BFB3460026202FA4BF5E468A
:1002F0004FF0000B5BEA060C08BF4FF0010B19EB47
:100300000B0948EB0608ABFB027C06FB02CC0BFB9F
:1003100003CCC01B71EB0C01C1E70B460246414602
:100320004846BDE8F08B13B5084318BF4FF0FF30C7
:100330000146AFF30080BDE81C4070474FF000025B
:1003400000B5134694469646203922BFA0E80C50CB
:10035000A0E80C50B1F12001BFF4F7AF090728BFA6
:10036000A0E80C5048BF0CC05DF804EB890028BF22
:1003700040F8042B08BF704748BF20F8022B11F04B
:10038000804F18BF00F8012B7047704770477047C7
:10039000754600F02BF8AE4605006946534620F03E
:1003A0000700854618B020B5FFF73EFFBDE82040A6
:1003B0004FF000064FF000074FF000084FF0000B21
:1003C000AC46ACE8C009ACE8C009ACE8C009ACE890
:1003D000C00921F007018D46704710B50446AFF300
:1003E00000802046BDE81040FFF709BF0048704775
:1003F0006801002001491820ABBEFEE7260002007C
:1004000070470000B0B5044600688168C90709D08C
:10041000816821F00101816001F0A2F921688968F9
:10042000C90701D10020B0BD054603E020688068FF
:10043000C007F7D001F094F9401B0328F6D32068D9
:100440008068C007F2D0A06A40F01000A062E06AA5
:1004500040F00100E0620120B0BD0000FEE70000B6
:1004600080B540F2FC20C2F2000000F065FB80BDC8
:1004700080B540F22430C2F2000000F05DFB80BD88
:1004800010B50446006846F60002C4F2000290422D
:1004900013D046F20042C4F20002904219D140F259
:1004A000E010C2F2000004608162204600210022B8
:1004B000002302F087FF0C2106E040F22420C2F264
:1004C000000081627021046020460022002302F0B7
:1004D00079FF204600F0C6FD2046022100F0CAF94F
:1004E0002046102100F0C6F910BD000080B588B08C
:1004F00002910021CDE90311CDE9051302A901AB59
:1005000000F0CCF908B080BD80B540F24C30C2F2AA
:10051000000000F095FE80BD10B54EF6FC5CCEF2FA
:10052000000CDCF8002044F24023C0F20F0342F03C
:100530008072584344F6D353CCF8002041F20002B5
:10054000C1F26203CEF200024FF0000CA0FB033EAA
:10055000C2F804C04DF683611368C4F21B31A0FBDE
:10056000011443F00101116040F25021C2F2000178
:10057000086040F254214FEA9E10C2F20001086068
:1005800040F25821A00CC2F20001086040F25C2049
:10059000C2F20000C0F800C010BD000070470000AB
:1005A000EFF3108072B600BFFEE70000B0B581B077
:1005B0000022009290F82420012A01D1022179E042
:1005C0004A680123062A80F8243005D803686FF0B2
:1005D000040C03F1340E0AE003680C2A87BF03F110
:1005E0002C0E6FF0400C03F1300E6FF0220C02EB7A
:1005F0008202DEF8005062441F230C68934025EA13
:10060000030304FA02F21A43CEF80020D1F800E006
:1006100002680EEB4E051024BEF1090F88BF1E3D87
:1006200088BF0C2452F804C007238968AB402CEA29
:100630000303A940194311512EF001014FF0000CA2
:1006400010294FF0000133D1016842F20042C4F298
:100650000102914205D0816A41F0200181620121AD
:1006600026E09268120222D48A68BEF1100F42F48A
:1006700000028A601BD140F20001C2F20001096849
:100680004DF68362C4F21B32A1FB0212910C01EB06
:10069000810149000091009949B100BF00990139D9
:1006A0000091009900294FF00001F7D100E00021EE
:1006B00080F824C0084601B0B0BD0000002804BF87
:1006C00001207047F0B581B00746044657F8280F5F
:1006D00030B90020E06284F82400204600F07AF867
:1006E0002046FFF78FFEA26AA16A002808BF12F019
:1006F000100205D041F010010120396001B0F0BDB9
:1007000041F2021291430231A162E169D4E901325E
:1007100041EA0305511EB1FA81F149091346B2F5C8
:10072000807F18BF0B02267D217B012E45EA410CFC
:1007300011D141B1A16A41F02001A162E16A41F009
:100740000101E16207E0A1694EF60006CFF6FF76EF
:1007500006EB41310B432168B2F5807F4E6826F4E9
:10076000694643EA06034B608B684FF2FD76CFF68D
:10077000E17603EA060343EA0C038B6001D0012A09
:1007800006D122690023CFF6F07303EB025200E09A
:100790000022CB6A23F470031A43CA62896840F6C8
:1007A000FE62CFF61F721140614506D10021E16261
:1007B000A16A012262F301019FE7A06A40F01000E4
:1007C00020F00200A06254F82C0F40F0010101203B
:1007D000274692E780B586B0006842F60001C4F271
:1007E000010188424FF00001CDE90411CDE9021169
:1007F0001DD042F20041C4F20101884238D141F2D9
:100800001800C4F20200016841F40071016001683F
:1008100001F4007101910199016841F00401016046
:10082000006800F0040001900198012016E041F2F8
:100830001800C4F20200016841F48061016001689F
:1008400001F4806101910199016841F004010160A6
:10085000006800F00400019001980220029003203B
:10086000039040F60000C4F2010002A900F07AFEF5
:1008700006B080BD90F82020013A012A04D8006813
:1008800000F11402002004E000F1240201204FF4E2
:1008900080211368194311607047000010B590F86B
:1008A00020E0D0F800C0AEF1010EBEF1010FDCF87F
:1008B00008E00ED81EF0E05F11D0CEF3016E0120EB
:1008C00000FA0EF018608B687BB1486843EAC003F9
:1008D0000DE000F1240101204FF4802223E000F11B
:1008E000240101204FF400121DE008684305D1E9FE
:1008F000030403430CEB0E10C0F88031C0F88441B0
:10090000097D012905D100F5C2710B6843F480739C
:100910000B605168C0F88C11126800F5C071C0F806
:100920008821002001220B681A430A6010BD0000D4
:10093000B0B590F82020013A012A2FD846F2006085
:10094000C4F20000026842F001020260026822F470
:100950007C520260D1F814E0CC694A6A0368012C29
:1009600043EA022202600EF01F024FF0010303FA75
:1009700002F2C3696FEA020C23EA0203C36113D0D7
:100980002CBBC36803EA0C03C360CB688C8844EAC1
:10099000034300EBCE0423640B4611E0416A41F4AB
:1009A000802141620120B0BDC3681343C3600B685E
:1009B0008C8844EA034300EBCE04236401F10C036A
:1009C0008C681B8843EA044300EBCE0463644368ED
:1009D0008D6943EA0204D1F810E0096A002D08BFCE
:1009E00003EA0C0444604369BEF1000F43EA0204C9
:1009F00008BF03EA0C040129446102D1C169114313
:100A0000C161016821F0010101600020B0BD00005A
:100A10007047000010B590F82040013C012C0AD826
:100A2000046871B12469A4070ED100F124010120EA
:100A30004FF4001276E000F1240101204FF48022EF
:100A400070E0E468A40771D0046804EB011CDCF8D2
:100A5000B0410CF5D87E14F004049460DCF8B04189
:100A600019BFE4085460640D1460DEF800400CF512
:100A7000DA7E04F00204D460DCF8B44124075ABFE3
:100A8000DEF8004004F00F0408241461DEF8004092
:100A90000029C4F307249461DEF800404FEA1444AF
:100AA0005461DCF8B8211A70026802EB0112D2F826
:100AB000B8214FEA12225A70026802EB0112D2F8F2
:100AC000B8214FEA12429A70026802EB0112D2F882
:100AD000B8214FEA1262DA70026802EB0112D2F812
:100AE000BC211A71026802EB0112D2F8BC214FEA54
:100AF00012225A71026802EB0112D2F8BC214FEAAD
:100B000012429A71026802EB0112D2F8BC214FEA3C
:100B10001262DA71006814BF00F1100100F10C01DB
:100B2000002020220B681A430A6010BD00F1240146
:100B300001204FF40012F5E72DE9F04F81B0044693
:100B400000684669D0F804908768D0F80CB0D0F8F7
:100B500010A0D0F81880F10703D1002530071CD46D
:100B600023E0F90710D00121BA07816009D4780782
:100B700000F1AA80380700F1B080204600F0A0FA0A
:100B800002E0204600F09EFA0025F80500F184807E
:100B9000F80300F1AA80300707D51BF0100004D03D
:100BA000206845F400751021C160700708D51BF05E
:100BB000080005D020680821C160204600F004FA32
:100BC000B00706D52068C068800702D0204600F034
:100BD000FDF9700607D51AF0100004D0206845F41E
:100BE000806510210161B00608D51AF0080005D013
:100BF000206808210161204600F00CFAF00606D5B5
:100C000020680069800702D0204600F005FAB00392
:100C100008D519F0100005D0206810214160204649
:100C200000F01EFAF00308D519F0080005D020687E
:100C300008214160204600F04FFA300440F18F80D7
:100C40005FEA497040F1888006F4807008EA10205D
:100C500028435FEA8871014648BF41F00201B205AE
:100C600058BF01465FEA48700D4648BF45F004058D
:100C7000700558BF0D4630056ED518F070006BD06A
:100C800010380009052862D8DFE800F003535659F0
:100C90005C5F45F008055AE020684FF48071BA05A2
:100CA00081600AD4780512D4380519D4204600F0A2
:100CB0000BFAF8037FF56FAF17E0204600F006FA55
:100CC000F8037FF568AF10E04FF400655DE705F5C8
:100CD0000055F8037FF55FAF07E04FF4805554E708
:100CE00005F58045F8037FF556AF20684FF4803155
:100CF000BA0381600AD478030FD4380313D4204692
:100D000000F0E6F930073FF548AF4EE7204600F027
:100D1000E1F930073FF541AF47E705F500453007FA
:100D20003FF53BAF41E705F5803530073FF535AF7F
:100D30003BE745F010050AE045F0200507E045F0E7
:100D4000400504E045F0800501E045F48075206829
:100D5000816921F0700181612068042141602DB119
:100D6000606A284360622046FFF752FE01B0BDE88A
:100D7000F08F0000B0B5C8B1044690F8200010B95B
:100D8000204600F071F82068016841F0010101601F
:100D900000F0E6FC054600BF20684168C90707D19E
:100DA00000F0DEFC401B0B28F6D312E00120B0BDA2
:100DB000016821F00201016000F0D2FC054600BF8D
:100DC0002068416889070DD500F0CAFC401B0B283C
:100DD000F6D3606A052140F400306062012084F897
:100DE0002010B0BD217E0268012922F0800208BFD8
:100DF00080320260617E0268012922F0400208BF51
:100E000040320260A17E0268012922F0200208BF60
:100E100020320260E17E0268012922F0100218BF30
:100E200010320260217F0268012922F0080208BF07
:100E300008320260617F0268012922F0040208BFC3
:100E400004320260D4E901C2D4E9033561691A436E
:100E50002A431143ACF101021143C1610020012179
:100E6000606284F82010B0BDB0B586B0006846F668
:100E70000001C4F2000188424FF00001CDE90411E5
:100E8000CDE9021151D046F20041C4F2000188427E
:100E900040F0988040F26021C2F200010A6841F2FD
:100EA0001C00C4F20200531C0B6042B9016841F0FF
:100EB00000710160016801F000710191019950F821
:100EC000041C40F6004441F0080140F8041C50F8AE
:100ED000040CC4F2010400F00800019001984FF4E2
:100EE00080700290002002ADCDE903002046294623
:100EF00000F038FB4FF400700290022003900320B2
:100F000005902046294600F02DFB0420C4F2010084
:100F1000016849F6FF72CFF6FF02114041F0E0612F
:100F200041F480410160142444E041F21C00C4F209
:100F30000200016841F080610160016801F0806198
:100F40000191019940F26021C2F200010A68531C2C
:100F50000B6042B9016841F000710160016801F065
:100F600000710191019950F8041C40F6004441F0D1
:100F7000080140F8041C50F8040CC4F2010400F00D
:100F80000800019001984FF480500290002002ADBB
:100F9000CDE903002046294600F0E4FA4FF4005062
:100FA000029002200390032005902046294600F07D
:100FB000D9FA402420460021002200F047FC2046B8
:100FC00000F040FC06B0B0BD70470000B0B501684D
:100FD00046F60002C4F2000291420BD046F20042F3
:100FE000C4F20002914218BFB0BD40F2E015C2F257
:100FF000000503E040F22425C2F200052C1D05F196
:10100000200300212246FFF705FDA96A20468847F4
:10101000B0BD000070470000B0B5016846F60002A0
:10102000C4F2000291420BD046F20042C4F2000228
:10103000914218BFB0BD40F2E015C2F2000503E0D6
:1010400040F22425C2F200052C1D05F120030121E8
:101050002246FFF7DFFCA96A20468847B0BD0000A2
:1010600070470000B0B5044690F8200001281DD15B
:10107000022084F820002068016821F0010101604D
:1010800000F06EFB054600BF20684068C00713D023
:1010900000F066FB401B0B28F6D3606A40F400307A
:1010A0006062052084F820000120B0BD606A40F431
:1010B000002060620120B0BD00206062B0BD000071
:1010C0007047000070470000704700007047000044
:1010D000704700007047000070470000014690F81C
:1010E0002100022813D10868D1E90FC3026822F059
:1010F0000E020260026822F001020260012000FA82
:1011000003F2CCF8042081F82100002002E0042042
:1011100088630120002281F82020704780B590F874
:101120002110022927D1026840F2040C1368C4F28E
:10113000020C23F00E03136013680CF17C018A4249
:1011400023F0010111601BD940F20841C4F20201F1
:101150008A4248D040F21C41C4F202018A4246D081
:1011600040F23041C4F202018A4244D14FF480730C
:10117000CCF8003458E0042181630121084680BD89
:101180004321C4F202018A420EDD6B21C4F2020146
:101190008A421BDC4421C4F202018A4239D0582120
:1011A000C4F202018A4231E00821C4F202018A42FB
:1011B00032D01C21C4F202018A4232D03021C4F262
:1011C00002018A4222D14FF480722BE06C21C4F2DA
:1011D00002018A4222D08021C4F202018A4215D142
:1011E0004FF080721EE00123CCF800341CE0102385
:1011F000CCF8003418E00CF588614FF480338A4253
:1012000008BF4FF48053CCF800340DE04FF4803227
:1012100008E04FF4805205E0012203E04FF4801211
:1012200000E01022CCF80020012180F82110426B50
:10123000002180F820100AB190470021084680BDA7
:1012400010B5D0F800E0D0E90FC3DCF80020DEF8DC
:1012500000104C072ED504249C4014402AD0DEF800
:101260000010890605D4DEF8001021F00401CEF844
:1012700000100422C4F2020202F17C018E454DD915
:1012800040F20841C4F202018E4500F0AC8040F209
:101290001C41C4F202018E4500F0A98040F23041A9
:1012A000C4F202018E4540F0A6804FF48061C2F87E
:1012B0000014EDE08C0746D502249C40144042D037
:1012C000DEF80010890608D4DEF8001021F00A01CB
:1012D000CEF80010012180F821100422C4F202028D
:1012E00002F17C018E454BD940F20841C4F2020163
:1012F0008E4500F0AD8040F21C41C4F202018E45E3
:1013000000F0AA8040F23041C4F202018E4540F064
:10131000A7804FF40071C2F80014C9E04321C4F261
:1013200002018E4540DD6B21C4F202018E454DDC89
:101330004421C4F202018E4500F09D805821C4F280
:1013400002018E4562E0090758BF10BD082199408F
:10135000114014D0DEF8001021F00E01CEF800107C
:10136000012101FA03F2CCF80420816380F82110F6
:10137000016B0022002980F8202018BF884710BD8B
:101380004321C4F202018E4543DD6B21C4F2020108
:101390008E4550DC4421C4F202018E457ED0582196
:1013A000C4F202018E456EE00821C4F202018E45AE
:1013B00064D01C21C4F202018E4567D03021C4F2F2
:1013C00002018E4522D14FF4806160E06C21C4F2AD
:1013D00002018E4554D08021C4F202018E4515D100
:1013E0004FF0806153E00421C2F8001450E0402126
:1013F000C2F800144CE002F588634FF480219E454A
:1014000008BF4FF48041C2F8001441E04FF480213E
:101410003DE00821C4F202018E4542D01C21C4F2F5
:1014200002018E4542D03021C4F202018E452AD1FC
:101430004FF400713BE06C21C4F202018E4532D0C2
:101440008021C4F202018E451DD14FF000712EE0C3
:101450000221C2F800142BE02021C2F8001427E07A
:1014600002F588634FF400319E4508BF4FF40051E8
:10147000C2F800141CE04FF4804108E0042106E0AB
:101480004FF4800103E04FF4003110E0402111607F
:10149000C16A00293FF473AF884710BD4FF4005173
:1014A00005E0022103E04FF4001100E0202111606B
:1014B000816A0022002980F820203FF460AF88472D
:1014C00010BD0000014600284FF0010008BF704722
:1014D0002DE9F04740F2000CC4F2020C0A684FF606
:1014E000F8330CF5816ECBF6FD73724538BF03F50A
:1014F000806303EB020E4CF6CD43CCF6CC43AEFB3F
:10150000033E6FF003060CF5806506EA9E06D1E9FE
:1015100001A9D1F80C803CBF0025C4F20205C1E945
:101520000F56022681F82160166843F6F075AE4327
:1015300046EA0A06D1E9045746EA090646EA0806D9
:10154000D1E906432E43374327433B431360002230
:101550008A6381F8210081F820200020BDE8F0474F
:10156000704700002DE9F04F82B00E68002E00F0A9
:10157000F38041F20042C4F20102042340F2004E23
:10158000904208BF03234FF6FF7CC4F2010E009384
:1015900000240123C1F2100C4FF0000A4FF00009A3
:1015A00041E0012504F00C030F279F402BEA0707B9
:1015B00005FA03F33B4342F826304E6840F20C45EF
:1015C000F202DEF8082054BF22EA080242EA0802CA
:1015D000C4F20105CEF808202A68B30254BF22EAFB
:1015E000080242EA08022A60B303DEF8042054BF6E
:1015F00022EA080242EA0802F303CEF80420DEF8E9
:1016000000204FF0010354BF22EA080242EA080218
:10161000CEF800200E680AF1010A36FA0AF204F147
:10162000040400F0998003FA0AFB16EA0B08F1D0D3
:101630004A68624510DC122A50D8DFE802F0330A0B
:1016400041454F4F4F4F4F4F4F4F4F4F4F4F4F48C9
:101650004C00D1F80C9041E04FF6FF75C1F2210526
:10166000AA420FDC0025C1F21105AA421AD00025BA
:10167000C1F21205AA4215D00025C1F22105AA42E5
:1016800010D02BE00025C1F22205AA420AD0002585
:10169000C1F23105AA4205D00025C1F23205AA42A5
:1016A0001CD100BF8A6842B1012A14BFC0F814B02F
:1016B000C0F810B04FF0080910E04FF004090DE039
:1016C000CA6802F1080909E04FF0000906E0CA689B
:1016D00002F1040902E0CA6802F10C09224605463B
:1016E000B8F5807F24BF203A04352E680F27974035
:1016F000BE4309FA02F232432A60CA79D2067FF564
:1017000089AF41F21803C4F202031A684FEA9A063D
:1017100042F001021A601A6840F6000302F001026A
:101720000192019AAEF57E7252F826B0C4F201031E
:1017300098420FD040F60043C4F2010398423FF4B0
:1017400030AF41F20003C4F20103009D984208BF8C
:10175000022527E7002525E702B0BDE8F08F00004D
:1017600040F26840C2F200000068704740F260102A
:1017700040F26841C2F20000C2F2000100780A683B
:10178000104408607047000080B542F20000C4F2C7
:101790000200016841F010010160032000F066F8CA
:1017A0000F2000F005F800F02BF8002080BD0000AD
:1017B000B0B540F26012C2F2000240F200011278AD
:1017C000C2F200014FF47A730968B3FBF2F20446E7
:1017D000B1FBF2F1084600F067FC0F2C4FF0010559
:1017E0000CD858B94FF0FF3021460022002500F0F8
:1017F0002DF840F26410C2F2000004602846B0BD2B
:1018000082B041F21800C4F202000168022241F0E5
:1018100001010160016801F0010101910199416834
:1018200041F080514160406800F080500090009885
:101830000420C4F20100016862F31A61016002B081
:101840007047000080B501F0F3FF80BD70B514460D
:101850000D46064601F0FCFF2946224601F0CCF970
:101860000146304601F0FCFF70BD000080B502F07B
:1018700009F880BD2DE9F04182B00446007841F2BC
:101880002C06C007C4F2020653D056F8100C10F014
:1018900080580BD156F8100C40F0805046F8100CD0
:1018A00056F8100C00F080500190019847F20007A4
:1018B000C4F200073868C0050FD4386840F480705F
:1018C0003860FFF74DFF05463868C00505D4FFF7BF
:1018D00047FF401B6428F7D96FE056F80C0C10F452
:1018E000407015D0616801F44071884210D056F8FC
:1018F0000C0C40F24042C4F24222012320F4407119
:1019000013600023C007136046F80C1C40F0898068
:1019100056F80C0C616820F440700843B8F1000FD1
:1019200046F80C0C05D156F8100C20F0805046F803
:10193000100C2068810744D441074CD4000705D51A
:101940003068216920F480200843306030688003CB
:101950005CBF30685FEA40304CD556F82C0CC000B4
:1019600042D456F82C0C400105D53068A16900F02E
:10197000F000884251D13068D4E9052120F0F00010
:1019800008433060306840F2404120F4704010431A
:1019900030604FF63040CFF6FF70C4F24221012292
:1019A0000A50FFF7DDFE054656F82C0C800021D4C6
:1019B000FFF7D6FE401B6428F6D9032002B0BDE82D
:1019C000F08156F8281CA26821F44041114346F8E2
:1019D000281C4107B2D53168E26821F40031114377
:1019E00031600007ACD4B1E73068616900F4704041
:1019F000884212D12078C00603D4002002B0BDE88E
:101A0000F08156F8280CE16920F48000084346F87C
:101A1000280C002002B0BDE8F081012002B0BDE832
:101A2000F081FFF79DFE054641F2883756F80C0C11
:101A300080073FF56DAFFFF793FE401BB8424FF0B4
:101A40000300F3D9E6E700002DE9F04381B0002858
:101A500000F0898042F20008C4F202080446D8F877
:101A600000000D4600F0070088420CD2D8F80000B4
:101A700020F007002843C8F80000D8F8000000F064
:101A80000700A8426FD1206841F204098107C4F21F
:101A9000020917D5410705D5D9F8001041F4E061D6
:101AA000C9F80010010705D5D9F8001041F46051BC
:101AB000C9F80010D9F80010A26821F0F001114314
:101AC000C9F80010C00745D1D8F8000000F00700A1
:101AD000A8420CD9D8F8000020F007002843C8F825
:101AE0000000D8F8000000F00700A8423BD12068B1
:101AF000410707D5D9F80010E26821F4E0611143ED
:101B0000C9F80010000708D5D9F80000216920F4B1
:101B1000605040EAC100C9F8000000F079F8D9F837
:101B2000001043F6D672C1F30311C0F60002515CF7
:101B300040F2000220FA01F140F26410C2F200000B
:101B40000068C2F200021160FFF732FE002001B00F
:101B5000BDE8F0836068022809D0012829D159F82E
:101B6000041C890307D4012001B0BDE8F08359F8B3
:101B7000041C8901F7D5D9F8001021F003010843AE
:101B8000C9F80000FFF7ECFD064641F2883700BFB8
:101B9000D9F80000616800F00C00B0EB810F93D021
:101BA000FFF7DEFD801BB842F2D9032001B0BDE88B
:101BB000F08359F8041C8907D5D5DCE740F2000012
:101BC000C2F200000068704780B5FFF7F7FF41F2EE
:101BD0000401C4F20201096843F6E672C1F302216E
:101BE000C0F60002515CC84080BD000080B5FFF720
:101BF000E5FF41F20401C4F20201096843F6E6720E
:101C0000C1F3C221C0F60002515CC84080BD000093
:101C100010B541F22C01C4F2020151F8283C03F046
:101C20000C00082841F20020C0F27A0018BF10BD55
:101C3000C3F3834419A2125DDB0305D440F6001000
:101C4000C0F23D00504310BD0B680FF2600C03F072
:101C50000F0E0B681CF80EC0DB0303D45043B0FB1F
:101C6000FCF013E00B680968C3F3031303F1010EE2
:101C700042F20043C1F30321C0F2F40301FB003040
:101C8000A0FB0201AEFB0C23FEF7E0FAA4F10D016C
:101C9000B1FA81F14909C84010BD00BF0000040538
:101CA0000607080900000000000D000001020304FF
:101CB00005060708090A0B0C0D0E0F102DE9F0415F
:101CC00082B0002800F0A3810446007841F20006AB
:101CD000C007C4F2020644D0706800F00C0004286B
:101CE00005D1306880033CD5A068D0BB8FE1706817
:101CF00000F00C00082802D17068C003F1D4A56878
:101D00002DB1B5F5A02F0AD0B5F5803F0BD03068C6
:101D100020F480303060306820F4802006E03068A5
:101D200040F480203060306840F480303060FFF74D
:101D300017FD002D054611D03068800311D4FFF740
:101D40000FFD401B6428F7D914E100BFFFF708FD21
:101D5000401B64284FF0030000F295803068800338
:101D6000F4D42078800719D5706810F00C0F07D0D4
:101D7000706800F00C00082827D17068C00324D4D4
:101D80003068800703D56069012840F040813068E1
:101D9000A16920F0F80040EAC10030602078000717
:101DA0003FD5E06948B36820C4F242200121C0F861
:101DB0001814FFF7D5FC0546706A80072FD4FFF78B
:101DC000CFFC401B0228F7D9D4E06069002840F21C
:101DD0006800C4F2422000F0A280012140F8681C93
:101DE000FFF7BEFC054600BF30688007CFD4FFF781
:101DF000B7FC401B0228F7D9BCE06820C4F242209F
:101E00000021C0F81814FFF7ABFC0546706A800784
:101E100007D5FFF7A5FC401B0228F7D9AAE000F080
:101E200003FF2078400731D4E06A002800F0D78013
:101E30007168C90308D5716801F00C01082903D144
:101E4000F16AC90300F1E380022852D13068C00072
:101E500006D5F06A616B00F0F000884240F0D78050
:101E60006827C4F2422700203860FFF779FC054656
:101E70003068000140F19680FFF772FC401B642837
:101E80004FF00300F4D902B0BDE8F081F06910F022
:101E9000805808D1F06940F08050F061F06900F09E
:101EA00080500190019847F20007C4F2000738689B
:101EB000C00510D4386840F480703860FFF750FCDB
:101EC000054600BF3868C00505D4FFF749FC401B34
:101ED0006428F7D94EE025691DB1052D32D0012DBA
:101EE00034D0306A20F001003062306A20F0040003
:101EF0002FE0F06A002120F48030F0626820C4F204
:101F000042200160FFF72CFC054600BF306800014D
:101F100065D5FFF725FC401B6428F7D92AE000218E
:101F200040F8681CFFF71CFC054600BF30688007BE
:101F30007FF534AFFFF714FC401B02284FF003007D
:101F4000F4D9A0E7306A40F004003062306A40F013
:101F500001003062FFF704FC002D054641F288378E
:101F600014D000BF306A800713D4FFF7F9FB401B81
:101F7000B842F7D9032002B0BDE8F081FFF7F0FBCB
:101F8000401BB8424FF003003FF67DAF306A800738
:101F9000F4D4B8F1000F7FF447AFF06920F080501F
:101FA000F06141E7F06AD4E90C2120F0F000084329
:101FB000F062F06A20F470601043F0620120386033
:101FC000FFF7CEFB054600BF3068000107D4FFF7DE
:101FD000C7FB401B64284FF00300F5D953E7256A7F
:101FE0008DB1706800F00C00082814D1012D0ED0BE
:101FF0007068616A00F480328A4208D1A16A00F4F4
:102000007010884203D1002002B0BDE8F0810120A9
:1020100002B0BDE8F0816827C4F24227002047F8EB
:10202000080CFFF79DFB022D05460BD1306880019F
:1020300013D5FFF795FB401B02284FF00300F5D99D
:1020400021E700BF30688001DDD5FFF789FB401B29
:1020500002284FF00300F5D915E7606AB0F5803F1C
:1020600009D1F16A6268E3681143F162F16A21F013
:102070000F011943F1627168A26A21F474111043CF
:1020800008437060012047F8080CFFF769FB04461D
:1020900030688001B7D4FFF763FB001B02284FF0C4
:1020A0000300F5D9EFE6000080B500F0D5FD80BD56
:1020B000704700007047000010B590F83C20012ADE
:1020C0004FF0020237D0012380F83C3080F83D20E9
:1020D0000268D2F804E0D2F808C00C682EF0700351
:1020E000234340F2FF74C4F20004A24253600EDDA9
:1020F00040F60003C4F200039A4211D042F60043B6
:10210000C4F201039A420BD040F6004304E0B2F15E
:10211000804F05D040F20043C4F200039A4204D13C
:1021200049682CF08003194391600121002280F856
:102130003D1080F83C20104610BD0000002804BF70
:102140000120704710B5044690F83D0028B90020E2
:1021500084F83C00204600F01FF8022084F83D007F
:102160002068211D00F0F0FD012084F8460084F86D
:102170003E0084F83F0084F8400084F8410084F871
:10218000420084F8430084F8440084F8450084F851
:102190003D00002010BD000010B582B0006840F284
:1021A0000041C4F20001884214D0B0F1804F27D121
:1021B00041F21C00C4F202000168002241F001015A
:1021C00001600068012100F00100019001981C20CD
:1021D0001C2410E041F21C00C4F20200016800223D
:1021E00041F0020101600068002100F0020000904F
:1021F00000981D201D24FFF729FB2046FFF722FB36
:1022000002B010BD90F83D1001291CBF012070479D
:10221000022180F83D10006840F2FF72C168C4F2EC
:102220000002904241F00101C1600EDD40F6000164
:10223000C4F20001884211D042F60041C4F201010B
:1022400088420BD040F6004104E0B0F1804F05D049
:1022500040F20041C4F20001884206D1816801F0D9
:102260000701062904BF00207047016841F0010101
:10227000016000207047000010B5044690F83C0053
:1022800001284FF0020008BF10BD012284F83C2055
:1022900084F83D0020684FF6777382689A43826025
:1022A0000A684F2A0FDC1F2A22DD202A23D0302A79
:1022B00021D0402A4DD14B68CA68194600F01AFE59
:1022C000206840213BE06F2A17DDB2F5005F20D087
:1022D000B2F5805F2AD0702A3BD1D1E9012CCB68BE
:1022E000614600F097FD2068816841F077011AE0AF
:1022F0000AB1102A2DD1114621E0502A18D0602AA7
:1023000027D14B68CA68194600F006FE2068602194
:1023100015E0D1E9012CCB68614600F07BFD206817
:10232000816841F48041816000200BE0002009E0D9
:102330004B68CA68194600F0DDFD2068502100F0A6
:1023400075FD0020012184F83D10002184F83C1027
:1023500010BD0120F6E7000070470000B0B504464C
:102360000068C168026902EA0105A9071DD468076F
:1023700031D4280747D4E8065CD4E80773D128068F
:102380007BD4680606D520686FF0400101612046C5
:1023900000F0E0F8A80658BFB0BD20686FF020013B
:1023A00001612046FFF786FEB0BD6FF002010161BA
:1023B000012121778069800703D02046FFF7CCFFF9
:1023C00005E0204600F064F8204600F063F80020A5
:1023D00020776807CDD520686FF0040101610221E4
:1023E0002177806910F4407F03D02046FFF7B4FFC7
:1023F00005E0204600F04CF8204600F04BF80020A5
:1024000020772807B7D520686FF008010161042103
:102410002177C069800703D02046FFF79DFF05E0C4
:10242000204600F035F8204600F034F800202077F0
:10243000E806A2D520686FF010010161082121771C
:10244000C06910F4407F03D02046FFF785FF05E008
:10245000204600F01DF8204600F01CF800202077F0
:10246000E8073FF48CAF20686FF00101016120465E
:1024700000F012F828067FF584AF20686FF0800125
:1024800001612046FFF714FE68067FF583AF7AE707
:10249000704700007047000080B5006840F6FF31CB
:1024A000C4F20001884216DD41F2FF31C4F200019E
:1024B000884224DC40F60041C4F20001884230D05A
:1024C00041F20001C4F2000188423AD140F28C206E
:1024D000C2F200003AE0B0F1804F27D040F2004154
:1024E000C4F2000188422DD040F60001C4F2000180
:1024F000884226D140F27C20C2F2000026E041F260
:102500000041C4F20001884215D042F60041C4F2F5
:102510000101884218BF80BD40F26420C2F2000071
:1025200014E040F28420C2F200000FE040F26C2080
:10253000C2F200000AE040F29420C2F200004068BB
:10254000804780BD40F27420C2F20000406880479E
:1025500080BD000070470000704700007047000019
:10256000B0B582B0036804461868D9685A6900F0AB
:102570002F05202D01F0200505D125B1204600F0C2
:102580007BFD02B0B0BD5FEA007C1EBF02F0010E11
:1025900001F4907212EB0E024AD1226B0840C10680
:1025A0003DD5012A3BD10020019018680190586860
:1025B000019001985869400642D4A08DE18DE28DCA
:1025C000002A1CBF401A5FEA004101D102B0B0BD31
:1025D000216851E8031F226821F4907142E8031337
:1025E000002BF5D1216851E8051F226821F0010177
:1025F00042E80513002BF5D1202184F84210002178
:10260000216300BF216851E8031F226821F01001F7
:1026100042E80313002BF5D10221616354E0010667
:1026200058D44006D2D5204600F01AFD02B0B0BD05
:10263000C20718BF11F4807251D1420755D45BE034
:10264000E06B016849688AB2002ABFD0A38D9A4224
:10265000BCD2E1858069202831D000BF206850E8D5
:10266000030F216820F4807041E80302002AF5D1AD
:10267000206850E8050F216820F0010041E80502BC
:10268000002AF5D1206850E8050F216820F04000AD
:1026900041E80502002AF5D1202084F842000020FC
:1026A000206300BF206850E8030F216820F010006D
:1026B00041E80302002AF5D1E06BFEF70FFD02208E
:1026C0006063A08DE18D401A81B22046FFF744FF80
:1026D00002B0B0BD204600F07BFD02B0B0BD626C20
:1026E00042F001026264420706D5BEF1000F03D03A
:1026F000626C42F002026264820706D5BEF1000FEE
:1027000003D0626C42F004026264BCF1000F06D593
:102710005EEA050203D0626C42F008026264626CF9
:10272000002A3FF453AF0840800602D5204600F04F
:10273000A3FC20684069616C00F0400001F00801D2
:10274000401827D0204600F063FC2068406940060E
:102750001BD500BF206850E8050F216820F040001D
:1027600041E80502002AF5D1E06B70B143F20101A6
:10277000C0F600014163FEF7D1FC00283FF426AF0C
:10278000E06B416B884702B0B0BD2046FFF7E6FE24
:1027900002B0B0BD2046FFF7E1FE0020606402B049
:1027A000B0BD0000002804BF0120704710B50446EA
:1027B00090F8410028B9002084F84000204600F03D
:1027C00021F8242084F841002068C16821F40051D8
:1027D000C160204600F0B4FC2068016921F49041FA
:1027E0000161416921F02A014161C16841F4005150
:1027F000C16000202021606484F8411084F84210F8
:10280000606310BD2DE9F04385B040F600450446F5
:10281000C4F20105006805F530510027884204978D
:10282000CDE90277019702D005B0BDE8F08341F20F
:102830001806C4F2020630680DF1040840F4804026
:1028400030603068414600F4804000900098306865
:1028500040F008003060306800F0080000900098F8
:102860004020019002200290032004902846FEF7A9
:1028700079FE4FF0800928464146CDE9019703973C
:10288000FEF770FE0420C4F20100016840F24C35EE
:1028900041F0E06141F004010160A6F57C60C2F204
:1028A0000005C5E900072846C5E90279C5E90477AE
:1028B000C5E90677FEF706FE002818BFFDF770FE93
:1028C000252000210022E5636C62FEF7BFFF252072
:1028D000FEF7B8FF05B0BDE8F083000070470000C8
:1028E00070470000FEE70000B0B584B040F29C20C5
:1028F00042F200410024C2F20000C4F201014FF490
:10290000602201250394CDE9014404730475C2617A
:10291000C0E9001484600561FDF7D0FE002818BFEF
:10292000FDF73EFE40F29C20C2F2000001A9CDE975
:1029300001450394FDF73AFE002818BFFDF730FE6D
:1029400004B0B0BDB0B584B040F2CC2042F6000176
:102950000024C2F20000C4F201014FF460220125FC
:102960000394CDE9014404730475C261C0E9001405
:1029700084600561FDF7A2FE002818BFFDF710FE78
:1029800040F2CC20C2F2000001A9CDE90155039428
:10299000FDF70CFE002818BFFDF702FE04B0B0BD25
:1029A00010B540F2FC2046F20041C2F20000C4F231
:1029B000000140F2001404220023C0F2010480E868
:1029C0000E0000F10C014FF4802C4FF4001E81E842
:1029D000085084618383FEF7CDF9002818BFFDF706
:1029E000DFFD10BD80B540F2243046F60001C2F292
:1029F0000000C4F200010422002380E80E0000F170
:102A00000C014FF4802C4FF4001E81E808504FF465
:102A100080710183C0F81A30FEF7ACF9002818BFA6
:102A2000FDF7BEFD80BD000080B582B041F214000C
:102A3000C4F202000168002241F001010160006857
:102A4000002100F00100019001980F20FEF7FEFE2A
:102A50000F20FEF7F7FE02B080BD000080B586B003
:102A6000002041F21801CDE90400CDE90200C4F2D2
:102A700002010A6842F020020A600A6802F020029D
:102A80000192019A0A6842F004020A600A6802F0A0
:102A900004020192019A0A6842F008020A60096879
:102AA00001F00801019101990821CDE902100120EE
:102AB000049040F60000C4F2010002A9FEF752FDA6
:102AC00006B080BD80B586B040F290300021C2F2E1
:102AD00000004FF08042472340F2E73CCDE904116B
:102AE000CDE90211CDE90011C0E90023C0E9021CC3
:102AF00001618161FFF722FB002818BFFDF750FD3F
:102B00004FF48050029040F29030C2F2000002A9CF
:102B1000FFF7B2FB002818BFFDF742FD0020CDE90A
:102B2000000040F29030C2F200006946FFF7C4FA9C
:102B3000002818BFFDF734FD06B080BD80B586B013
:102B400040F2D83040F200420021C2F20000C4F24C
:102B50000002472340F2E73CCDE90411CDE9021120
:102B6000CDE90011C0E90023C0E9021C01618161C7
:102B7000FFF7E4FA002818BFFDF712FD4FF480506C
:102B8000029040F2D830C2F2000002A9FFF774FBB5
:102B9000002818BFFDF704FD0020CDE9000040F239
:102BA000D830C2F200006946FFF786FA002818BF45
:102BB000FDF7F6FC06B080BD80B540F2204043F63C
:102BC0000001C2F20000C4F2010100234FF00C0C1E
:102BD0004FF4E13280E80E00C0E90333C0E905C3D9
:102BE000C361FFF7DFFD002818BFFDF7D9FC80BDEA
:102BF000FEE70000FEE7000000F0070080F007039A
:102C0000042B28BF04234FF0FF3C03380CFA03F3D6
:102C100038BF0020994381400CFA00F022EA0000FE
:102C2000084370477047000081B040F20000C2F2D4
:102C30000000006844F6D351C1F26201A0FB01011B
:102C4000480A009000BF0098411E00280091F9D169
:102C500001B0704770470000B0B501380024B4EBF4
:102C6000106F1CBF0120B0BD4EF21005CEF2000562
:102C700068604FF0FF300F2100F0F2FD0720AC60DC
:102C800028602046B0BD000080B5FEF76FFD80BD16
:102C900070B59CB00EAC20463821FDF74FFB0120EB
:102CA00000250E9013904FF4E0104FF4803102266F
:102CB000CDE9180520460D95CDE90B55CDE909550F
:102CC000CDE90755CDE90555CDE90355CDE90155C8
:102CD0001195CDE90F51CDE91661FEF7EFFFF0B97F
:102CE0000F20CDE909064FF48060CDE90C0509A855
:102CF00002210B95FEF7A8FE88B9022001904FF43F
:102D00000040039001A8FEF7B5FD002801BF702028
:102D1000C4F242200121016004BF1CB070BDFDF768
:102D20003FFC00007047000080B540F29030C2F2D6
:102D30000000FFF713FB80BD80B540F2D830C2F22F
:102D40000000FFF70BFB80BD10B540F2FF7242F6AA
:102D5000004C0368C4F2000240F6000EC4F2010CFD
:102D60009042C4F2000E06DD70450DD060450BD0D8
:102D700040F6004404E0B0F1804F05D040F200443A
:102D8000C4F20004A04203D14C6823F07003234333
:102D9000904206DD70450DD060450BD040F60042F4
:102DA00004E0B0F1804F05D040F20042C4F20002CE
:102DB000904203D1CA6823F4407313434C6923F053
:102DC0008002D1F800E08B68224360450260C36254
:102DD000C0F828E002D10969CCF830100121416126
:102DE0000169C90708BF10BD016921F00101016136
:102DF00010BD000080B540F2FC2040F2C812C2F2C3
:102E00000000C2F2000240F2FF110823FDF76EFB42
:102E100080BD0000D0F808C011432CF47F4C41EA7B
:102E2000032141EA0C01816070470000826822F0B2
:102E30007002114341F0070181607047026840F65B
:102E4000FF33C4F200039A4216DD41F2FF33C4F2AD
:102E500000039A4224DC40F60043C4F200039A4285
:102E600030D041F20003C4F200039A4240D140F254
:102E70008C22C2F2000238E0B2F1804F27D040F23B
:102E80000043C4F200039A422BD040F60003C4F280
:102E900000039A422CD140F27C22C2F2000224E0CC
:102EA00041F20043C4F200039A4215D042F60043B7
:102EB000C4F201039A4218BF704740F26422C2F282
:102EC000000212E040F28422C2F200020DE040F261
:102ED0006C22C2F2000208E040F29422C2F2000228
:102EE00003E040F27422C2F20002131D1060196068
:102EF00070470000D0F820C0036A23F0010303628A
:102F0000836923F0F00343EA02122CF00A03194309
:102F10008261016270470000D0F820C0036A23F08C
:102F200010030362836923F4704343EA02322CF0F6
:102F3000A00343EA01118261016270472DE9F0416B
:102F40008AB0A820FDF7E8FA40F2FC26C2F200069B
:102F500043F24141C0F600013046FDF791FA40F2DC
:102F60009038C2F2000843F26531C0F600014046D5
:102F7000FFF764FF40F2D835C2F2000543F2693131
:102F8000C0F600012846FFF759FF40F6922040F2B4
:102F90000407C4F20620C2F200070024019038465C
:102FA000314605220323009400F00CFB0021C4F2FB
:102FB0007A6141F26F2044F20002CDE9021400214F
:102FC000C3F68320C4F29C52C4F2FA414CF6CD43BE
:102FD000CDE90042069007F15000C3F6CC530A46F3
:102FE0000894CDE90444079400F004FC4046FFF740
:102FF00009F92846FFF706F90AB0BDE8F08100009C
:1030000080B5406A0021C185C184FFF7A7FA80BD61
:10301000016851E8031F026821F4907142E803132C
:10302000002BF5D1016851E8051F026821F001016C
:1030300042E80513002BF5D1016B01290AD100BF2D
:10304000016851E8031F026821F0100142E80313F0
:10305000002BF5D1202180F8421000210163704738
:1030600080B50168CA6822F04002CA60202180F859
:103070004110FFF735FC80BD80B582B090F842105A
:1030800022291ED18268B2F5805F02D10169002930
:103090004AD0816AB2F5805F07D00AB9026922B1CD
:1030A0000268526802F07F0201E0026852680A700A
:1030B0000121826A11448162C18D01390A04C185EE
:1030C00001D002B080BD0168CA6822F02002CA6047
:1030D000CA6822F48072CA604A6922F001024A6119
:1030E000202180F8421000214163026B012A23D184
:1030F000016300BF016851E8031F026821F010015D
:1031000042E80313002BF5D101680A68D20606D500
:10311000002201920A680192496801910199818D0A
:10312000FFF71AFA02B080BD0168826A49686FF33E
:103130005F2111800221BCE7FFF7D0FB02B080BD08
:1031400010B504460068D4E902C22369016921F47C
:10315000405111430161616943EA0C021143C268A5
:1031600041F20C639A431143C1604169A26921F4A1
:103170004071114343F60002C4F2010290424161E2
:1031800002D0FEF721FD01E0FEF730FD6268192153
:1031900048439100B0FBF1F048F21F51C5F2EB112A
:1031A000A0FB01235A096FF0630302FB03003223E3
:1031B00003EB0010A0FB0101F02303EA5113206888
:1031C00003EB0212C1F343111144816010BD0000F2
:1031D00090F84110212923D18168B1F5805F01D198
:1031E000016931B1016A02684B1C036209785160C0
:1031F00007E0016A036831F8022B6FF35F225A601F
:103200000162C18C01390A04C18418BF704700688B
:10321000C16821F08001C160C16841F04001C16016
:103220007047000080B540F22040C2F20000FFF776
:1032300097F980BDFEE70000F0B581B0076804464D
:10324000384615460E4600F0CCFB10B1266001B0A2
:10325000F0BD3846294600F0BDFB00282E4608BFC9
:10326000266001B0F0BD000040F2FC22C2F2000274
:10327000904206D040F22432C2F20002904213D0B3
:103280007047023940F2D0100929C2F20000F7D885
:10329000DFE801F0193E1B051D23292F343A40F2C7
:1032A000C810C2F200007047023940F21420092908
:1032B000C2F2000088BF7047DFE801F0052A072C42
:1032C00031373D43484E023070470630704740F278
:1032D000C810C2F200000230704740F2C810C2F2BB
:1032E00000000430704740F2C810C2F200000630FF
:1032F000704740F2D810C2F20000704740F2D81078
:10330000C2F200000230704740F2D810C2F2000052
:103310000430704740F20C20C2F20000704740F2C7
:103320000C20C2F200000230704740F20C20C2F2C2
:1033300000000430704740F20C20C2F2000006305A
:10334000704740F21C20C2F20000704740F21C207F
:10335000C2F200000230704740F21C20C2F20000AE
:103360000430704770470000B0B540F20404C2F268
:103370000004204600F022F9204600F01BF904F179
:1033800050050146284600F051FA4DF67C11C4F272
:103390002001284600F056F9284600F055F9284645
:1033A00000F042FA0146204600F048F9204600F0BD
:1033B00057F8FFF71FFDB0BD42780A7000784870DB
:1033C0007047000080B58AB04FEAD10CCDF814C028
:1033D0004FF0000C5FEA817ECDF818C009D452018D
:1033E000CDE9012C5A011032CDF81CC0CDF800C037
:1033F00011E04FF0010CCDF81CC04FEAC20CC2F333
:103400004F32009261F3420CDA00C3F34F33CDF830
:1034100004C002930632C1F3800104910E21099188
:103420000121089169460392FDF782FA002818BF2E
:10343000FDF7B6F80AB080BD20F0004070470000EC
:1034400080B5016840F20522914218BF80BD00F1AD
:103450001C0140F20400C2F2000000F0A1F880BD9F
:1034600080B500F0D9F880BD2DE9F04383B0D0F8E5
:10347000F050044605F120000DF10A01FFF79CFF12
:1034800005F1220002A9FFF797FF05F124000DF1D5
:103490000601FFF791FF05F1260001A9FFF78CFF58
:1034A00094F80481B8F1010F18D1BDF80A00B4F8FE
:1034B00030110022401AB4F8061100B2A2EB5102FA
:1034C000904203DAD4F83801013005E0490881421E
:1034D00004DAD4F838010138C4F83801D4F83801D6
:1034E000B4F80661BDF80A50D4F8FC1000FB065091
:1034F00000EB01092846C4F8349100F0AFFB074601
:10350000304600F0ABFB0146384600F07DFA002162
:10351000C4F2B431064600F01DFCC4F81801304670
:10352000314600F0D9F940F6DB71C4F2490100F0F0
:1035300011FCBDF90810C4F81C01084600F076FB28
:1035400047F25071C3F6D651064600F003FC002145
:10355000C4F82001C4F2C001304600F0FBFBBDF905
:103560000610C4F82401084600F060FBBDF9041001
:10357000C4F82801084600F059FB49F23331C4F27F
:10358000883100F0A9F9C4E94B05B8F1000FC4F87F
:103590003C9104BF012084F8040103B0BDE8F0832E
:1035A00080B5D0F80C110131C0F80C11FFF75CFFA9
:1035B00080BD0000D0F8200170470000012180F894
:1035C00014117047B0B50D6846F20044C4F200040F
:1035D000DDE904ECA54204460AD046F60000C4F238
:1035E000000085420AD140F22420C2F2000003E02C
:1035F00040F2E010C2F20000C4F8F00008461146A4
:1036000084F8F42084F84031C4E93FECFFF72CFE45
:10361000C4F8F800B0BD0000B0B50446D0F8F850CA
:10362000D0F8580100F0E6FA000A2870D4F85801E2
:10363000D4F8F85000F0DEFA6870B0BDC0F8581148
:1036400070470000416470472DE9F04F81B0044697
:10365000406CA16C00F04AFC8146FFF7EDFE61680A
:10366000804600F0B0F928B9A06C4FF000094FF087
:1036700000086064216AA56B484600F06BFB0646B3
:103680002846002100F08AF9009638B1E06B00214D
:1036900000F084F910B14FF07E5B29E040462946E6
:1036A00000F098F9D0B92846414600F08CF9B8B935
:1036B000D4F83CA04046514600F085F980B9504608
:1036C000414600F013FC06465046294600F00EFC29
:1036D0000146304600F098F9834601E04FF07E5BEA
:1036E000E16B404600F07DF9002808BF4FF0000B69
:1036F000256B0021284600F051F988B9676A85F0EA
:103700000040394604F14C0A00F07EF9064628468E
:10371000394600F079F9024650463146FFF78CFDF4
:10372000256C0021284600F039F928B94046294681
:1037300000F049F9002858D12168656AE66C5846BE
:1037400000F008FB0146484600F004FB0146304605
:1037500000F0C2F80146E064284600F0FBFA80461B
:10376000207ADDF800B0A56A18B1E06904F114010F
:1037700002E004F118014846096800F0B7FB014671
:10378000284600F0E7FA21682569E76A666C00F0D0
:103790003BF982463046294600F0A8FB394600F046
:1037A000D9FA05465846414600F096F8514600F0D1
:1037B00093F8294600F090F8264646F81C0FB569A4
:1037C0000021284600F0EAF828B985F0004130468B
:1037D0002A46FFF731FDE069D4E91121C4E9050962
:1037E000C4E9031201B0BDE8F08F4FF00008C4F83F
:1037F0004C80B5E72DE9F047DDE90F6CDDE90DE719
:10380000DDE90B980DF1200AC0E9007600F12006F1
:103810009AE8300486E83E04C0E90E98C0F840E01B
:1038200080F808C0BDE8F087C069704781647047C0
:10383000002848BF704700F01F01012202FA01F181
:103840004EF200124009CEF2000242F820107047FA
:103850004EF60C50CEF200000068C0F30220704714
:103860004EF6145300F00F02CEF2000309011A4481
:1038700000F16043B0F1FF3FC8BF03F5644211702F
:10388000704700004EF60C51CEF200010A684FF668
:10389000FF031A4060F30A2242F0806040F0FD709E
:1038A00008607047FDF770FFFFF7F2F9FFF7D6F8F1
:1038B000FFF7BAF8FFF718F8FFF704F9FFF770F809
:1038C000FFF790F8FFF73EF8FFF738F9FFF774F9C4
:1038D000FFF734FBFEE7000090EA010F48BF81F0DC
:1038E000004100F10A83421A3CBF801A89184FEA4E
:1038F000D052A2EBD1534FF07F4C1CEA410F18BFBE
:103900009CEA026F00F03B804FF0004C4CEA002034
:103910004CEA012121FA03FC10EB0C0C1ED202F13F
:10392000FF325FEA1C2040EBC25038BF70471CF0EA
:103930007F0F4FEA400C18BFBCF17F4F38BF704774
:10394000C3F12003994008BF20F00100BCF17F4F74
:1039500038BF7047A0F1C04000F0C3BA4FEA3C0046
:10396000000A40EBC25028BF1CF0FF0F4FEA400C8A
:10397000E6D018BFBCF17F4F38BF7047EAE79CEA3A
:10398000026F05D010EA5C0F08BF00F000407047DE
:1039900010B500F060FA00BF64FBBE3E10B500F049
:1039A000F5F80CBF0120002010BD10B500F0EEF8B6
:1039B00014BF0120002010BD10B500F063F98CBFCA
:1039C0000120002010BD10B500F05CF92CBF0120D3
:1039D000002010BD10B500F089F994BF012000202F
:1039E00010BD10B500F082F934BF0120002010BDD9
:1039F000401058BFC0F14040491058BFC1F140418C
:103A00008142EFF3008070474FF47F0C1CEAD01224
:103A10001EBF1CEAD11392EA0C0F93EA0C0F00F0C0
:103A2000858090EA010F48BF42F4807240F4000C98
:103A300041F400002CF07F4120F07F4000B5A2EB64
:103A4000030281420FF2081CACEB504E9EF800E0DE
:103A5000C0F100004FEA4E0E00FB0EFC38BF4900DB
:103A60004FEA2C1C0CFB0EF34FEACE1E0EEB635EEE
:103A70004FEA112C0EFB0CFC4FEAC1214FEA1C53FC
:103A800000FB031102F5FA024FEA112C0EFB0CFCAD
:103A90004FEA01314FEADC4C00FB0C1142EB2242B1
:103AA000C14228BF09184CEB03335DF804EB10EB5F
:103AB000410143EBC250B2F57C0F38BF704729D5A6
:103AC00012F0F00F1CBF00F1C04000F00040704742
:103AD000008182838485868788898B8C8D8E8F91E7
:103AE0009293959697999A9C9D9FA0A2A3A5A7A80B
:103AF000AAACAEB0B2B3B5B7B9BCBEC0C2C5C7C937
:103B0000CCCED1D4D7D9DCDFE2E6E9ECF0F3F7FA9A
:103B1000FE0000004FEA400C0CF1807CBCF17E4FAF
:103B200028BF7047B0F1C04000F0DBB90CEAD113F8
:103B300090EA010F48BF42F48072624538BF634586
:103B400007D213F47F0F16D080EA010000F0004086
:103B5000704710B500F07FF9097EFC3E00F005B813
:103B600080EA010000F00040704780EA010000F0A8
:103B7000004000F0B6B912F47F0F04BF024870474E
:103B800080EA010000F0ADB90000C07F50EA010CEE
:103B900000F113801CF5000F58BFBCF5000F01D4D5
:103BA0008842704707D710F5000F58BF11F5000F76
:103BB00015D488427047894270471CF5000F04D520
:103BC000BCF5000FF7D5814270474FF0807C1CEBAD
:103BD000400F38BF1CEB410F01D28142704710B536
:103BE00000F039F9922449004FF000504FF0805115
:103BF000FFF7FEBE41000B0ED3F19E0208D950F430
:103C000000034FEA032323FA02F048BF4042704703
:103C100010B500F020F900BF4992248000207047C1
:103C20006FF0004282EA20007047000010F000416F
:103C300048BF4042B0FA80F310FA03F2C3F19D038B
:103C40000BD051EAC35101EB1220530638BF704725
:103C500000F1010008BF20F001007047B0FA80F3C6
:103C600010FA03F2C3F19D030AD0D90501EB12202B
:103C7000530638BF704700F1010008BF20F0010073
:103C80007047000050EA010C00F113801CF5000F92
:103C900058BFBCF5000F01D48842704707D710F514
:103CA000000F58BF11F5000F15D4884270478942A4
:103CB00070471CF5000F04D5BCF5000FF7D5814205
:103CC00070474FF0807C1CEB400F38BF1CEB410F5E
:103CD00001D28142704710B500F0BDF8922449002E
:103CE0004FF080504FF00051FFF782BE50EA010CB8
:103CF00000F113801CF5000F58BFBCF5000F01D474
:103D00008842704707D710F5000F58BF11F5000F14
:103D100015D488427047894270471CF5000F04D5BE
:103D2000BCF5000FF7D5814270474FF0807C1CEB4B
:103D3000400F38BF1CEB410F01D28142704710B5D4
:103D400000F089F8922449004FF000504FF0805164
:103D5000FFF74EBE4FF47F0C1CEAD0121EBF1CEAC8
:103D6000D11392EA0C0F93EA0C0F00F0478090EA0F
:103D7000010F48BF42F480724FF0004C4CEA002023
:103D80004CEA012102EB0302A0FB0113A2F50002A1
:103D9000002918BF43F001035B0028BF4FEA33033B
:103DA00042EB22425FEA132C4CEBC2502EBFBCEB1D
:103DB000436FB2F57C0F70474FEA036CBCF1004FC4
:103DC00008BF20F00100B2F57C0F38BF70470BD55B
:103DD00082F0FF0212F5803FC8BF704700F1C0407B
:103DE000D8BF00F00040704700F5000C5FEA4C0CB3
:103DF00048BF7047B0F1C04000F073B80CEAD1136F
:103E000090EA010F48BF42F48072624538BF6345B3
:103E100004D280EA010000F00040704710B500F0C5
:103E20001AF800BF8900013E00F007B800F009B899
:103E30005FEA410C5FEA1C6C08D080EA010000F0E8
:103E400050B85FEA400C5FEA1C6CF6D14FF00040BE
:103E5000A0F5800070470EF1020E2EF0030E5EF802
:103E6000044B244204D44FEA4102B2F17F4F11D8EF
:103E70004FEA4003B3F17F4F0CD80ED14FEAD07C0C
:103E80000CEB4C0C0CF1020CB2F17F4F08BF4CEB69
:103E9000D17C04E04FF0080C01E04FEAD17C0CEB40
:103EA0004C0324FA03F404F00704B4F1040C06D222
:103EB0000EEB840CBDE810404CF0010C6047DFE8CD
:103EC0000CF0070802024FF00040A0F5800010BD82
:103ED0000846420018BFD2F1807288BF00F000404F
:103EE00010BDFF2141EAD050C005704790EA010F94
:103EF00048BF81F000413FF5F6AC421A04D882F089
:103F00000042A0EB020011444FEAD052A2EBD15381
:103F10004FF07F4C1CEA410F18BF9CEA026F4AD059
:103F20004FF0004C4CEA00204CEA012121FA03FC3E
:103F3000B0EB0C0C0FD412F0FE0F36D05FEA4C0041
:103F40001DD5001240EBC25038BF70471CF03F0F28
:103F500018BF70470BE05FEA1C20A2F1010240EBA2
:103F6000C25038BF70471CF07F0F18BF7047C3F1B5
:103F70002003994014BF401E20F0010070474FEA13
:103F80001223800808BF7047B0FA80FCA2EB0C0235
:103F9000CCF1280C60FA0CF093EA122F04BF00EB6E
:103FA000C25070474FEAC3707047130A5FEADC10D3
:103FB00008BF7047F6E79CEA026F04D010EA5C0F76
:103FC00008BF0020704710B5FFF745FF40DFF63E01
:103FD00081F0004070470000000000000000010276
:103FE00003040607080900000000010203040000A2
:103FF0001040000800000020680100008C0100084B
:10400000284000086801002008090000C8010008D5
:1040100004FF00127AB1043720A861021C05420196
:08402000421000000000000046
:04000005080001519D
:00000001FF
