:020000040800F2
:100000002007002089010008470B0008E50A0008C6
:10001000450B00088F020008A30B00080000000039
:100020000000000000000000000000004B0B000872
:100030009102000800000000490B00084D0B000869
:10004000A3010008A3010008A3010008A301000800
:10005000A3010008A3010008A3010008A3010008F0
:10006000A3010008A3010008A3010008A3010008E0
:10007000A3010008A3010008A3010008A3010008D0
:10008000A3010008A3010008A3010008A3010008C0
:10009000A3010008A3010008A3010008A3010008B0
:1000A000A3010008A3010008A3010008A3010008A0
:1000B000A3010008A3010008A3010008A301000890
:1000C000A3010008A3010008A3010008A301000880
:1000D000A3010008A3010008A3010008A301000870
:1000E000A3010008A3010008A301000800F002F822
:1000F00000F03AF80AA090E8000C82448344AAF188
:100100000107DA4501D100F02FF8AFF2090EBAE885
:100110000F0013F0010F18BFFB1A43F0010318473B
:10012000B81A0000D81A0000103A24BF78C878C165
:10013000FAD8520724BF30C830C144BF04680C60ED
:10014000704700000023002400250026103A28BF35
:1001500078C1FBD8520728BF30C148BF0B60704739
:100160001FB51FBD10B510BD00F058F81146FFF7C0
:10017000F7FF00F015FE00F076F803B4FFF7F2FF8A
:1001800003BC00F07DF8000009488047094800479B
:10019000FEE7FEE7FEE7FEE7FEE7FEE7FEE7FEE737
:1001A000FEE7FEE704480549054A064B7047000094
:1001B000A10B0008ED00000820010020200700200E
:1001C00020030020200300204FF0000200B513465A
:1001D00094469646203922BFA0E80C50A0E80C5067
:1001E000B1F12001BFF4F7AF090728BFA0E80C5018
:1001F00048BF0CC05DF804EB890028BF40F8042B11
:1002000008BF704748BF20F8022B11F0804F18BF7D
:1002100000F8012B7047704770477047754600F033
:100220002BF8AE4605006946534620F00700854688
:1002300018B020B5FFF7B6FFBDE820404FF000062C
:100240004FF000074FF000084FF0000B21F00701BE
:10025000AC46ACE8C009ACE8C009ACE8C009ACE801
:10026000C0098D46704710B50446AFF300802046A4
:10027000BDE81040FFF781BF00487047C000002074
:1002800001491820ABBEFEE7260002007047FEE7DA
:10029000704700000648016841F080710160054820
:1002A000016841F0010101600021416070470000D8
:1002B000FCED00E0001000E02DE9F84FDFF8B89108
:1002C0000024A9F1040B23460F2709F1040AABF11E
:1002D000040EC9E00125A5402A40AA427DD1674EFF
:1002E000D1F804C0ACEB0608B44532D014DCBCF144
:1002F000030F3AD009DCBCF1000F2AD0BCF1010F8A
:100300001CD0BCF1020F31D11DE0BCF1110F17D090
:10031000BCF1120F2AD119E0B8F5881F19D006DCFC
:10032000B8F5803F15D0B8F5801F1FD111E0B8F5A2
:10033000001F0ED0B8F5041F18D10AE0CB6815E0F5
:10034000CB681B1D12E0CB6808330FE0CB680C3381
:100350000CE08B682BB1012B4FF0080303D04561F3
:1003600004E0042302E0056100E00023FF2A01D835
:10037000064601E000F104064FEA840501D9A5F123
:100380002005D6F8008007FA05FC28EA0C0803FAD5
:1003900005F548EA0508C6F800804D68ED0062D50D
:1003A000374DAE6946F00106AE61AD6924F0030633
:1003B00005F001050095334D06EB050CDCF80850FF
:1003C000A607360F07FA06F825EA0805DFF8B88011
:1003D000404503D14FF0000817E044E0DFF8AC805F
:1003E000404502D14FF001080FE0DFF8A4804045FE
:1003F00002D14FF0020808E0DFF89880404502D1B2
:100400004FF0030801E04FF0040808FA06F848EA44
:100410000508CCF808804D68D9F80060ED024D461B
:1004200001D5164300E096432E604D68DAF800606F
:10043000AD02554601D5164300E096432E604D6847
:10044000DBF80060AD035D4601D5164300E096433E
:100450002E604D68DEF80060ED03754601D5164349
:1004600000E096432E60641C0D682A46E5407FF448
:1004700031AFBDE8F88F0000080401400000111002
:10048000001002400000014000080140000C014043
:1004900000100140001401408068084000D0012095
:1004A00070470AB1016170470904FBE701488068A1
:1004B000704700001800002002488168027811444B
:1004C0008160704718000020074810B5016841F0AE
:1004D00010010160032000F067F80F2000F006F81B
:1004E00000F024F8002010BD0020024070B50D4D32
:1004F00004464FF47A712878B1FBF0F00A49096894
:10050000B1FBF0F000F0AEFA48B9102C07D200228F
:100510002146501E00F028F800206C6070BD0120BC
:1005200070BD000018000020240000200C4808B511
:10053000816941F001018161816901F0010100914E
:10054000C16941F08051C161C06900F080500090E4
:100550000448416821F0E06141F00071416008BD4C
:100560000010024000000140F0B40E4B1B680C4626
:10057000C3F30223C3F10705042D00D90425191D77
:10058000072901D2002300E0DB1E012606FA05F14F
:10059000491E214099409E40761E16403143F0BCD2
:1005A00000F000BB0CED00E0064900F0070208680F
:1005B0004FF6FF03184040EA0220034A1043086048
:1005C000704700000CED00E00000FA052DE9F0474F
:1005D0000F46050061D0434E306800F00700B84276
:1005E00009D2306820F0070038433060306800F0EE
:1005F0000700B84251D128683B4C810712D540070B
:1006000003D5606840F4E06060602878000703D597
:10061000606840F4605060606068A96820F0F00095
:10062000084360602878C00728D06868012810D087
:100630002168022810D0890700292EDA616821F08C
:10064000030101436160FFF731FF804641F28839C1
:100650000DE021688903EFE78901EDE7FFF726FF49
:10066000A0EB0801494502D90320BDE8F087606886
:10067000696800F00C00B0EB810FEFD1306800F03A
:100680000700B8420BD9306820F0070038433060CB
:10069000306800F00700B84201D00120E5E7287873
:1006A000400705D56068E96820F4E06008436060B1
:1006B0002878000706D56068296920F4605040EA70
:1006C000C100606000F018F86168084AC1F30311C6
:1006D000515CC8400649086006480068FFF706FFFD
:1006E0000020C2E70020024000100240C81B0008A2
:1006F000240000201C0000200E4A51680E4801F022
:100700000C03042B11D0082B0FD10C48C1F38343E9
:10071000C903C05C0AD55168084AC1F34041921E22
:10072000515C054A5043B0FBF1F07047044948431F
:10073000704700000010024000127A00B81B000849
:1007400000093D002DE9F84F040070D02078C04D1D
:10075000C00749D06868C0F38100012807D06868E5
:10076000C0F38100022809D16868C00306D5286853
:10077000800339D560680028E7D035E06068B0F5BF
:10078000803F0BD010B1B0F5A02F11D0286820F415
:1007900080302860286820F4802002E0286840F437
:1007A00080302860606890B1FFF780FE06460AE05E
:1007B000286840F480202860F0E700BFFFF776FE4D
:1007C000801B642873D828688003F7D50CE0FFF7F6
:1007D0006DFE064605E000BFFFF768FE801B64283B
:1007E000F0D828688003F7D420789A4E80074FF01D
:1007F00001094FF0000839D5686810F00C0F07D0D8
:100800006868C0F38100022809D16868C00306D473
:100810002868800714D52069012808D110E02069D4
:10082000B0B1C6F80090FFF741FE074605E00AE1C7
:10083000FFF73CFEC01B0228C4D828688007F7D504
:100840002868616920F0F80040EAC10028600DE0E6
:10085000C6F80080FFF72AFE074604E0FFF726FEF1
:10086000C01B022823D828688007F7D42078000707
:100870002CD57948A169D9B1C0F80090FFF716FED0
:10088000074604E0FFF712FEC01B02280FD8686A73
:100890008007F7D571484FF4FA510068B0FBF1F0CA
:1008A000009000BF0098411E0091FAD20EE080E057
:1008B000C0F80080FFF7FAFD074604E0FFF7F6FDF9
:1008C000C01B022875D8686A8007F7D420784007D3
:1008D00060D5E8690027C00008D4E86940F080507E
:1008E000E861E869012700F0805000905C480168E9
:1008F000C90513D40168834641F480710160FFF794
:10090000D5FD824606E000BFFFF7D0FDA0EB0A0050
:1009100064284ED8DBF80000C005F5D5E068012852
:100920000AD008B1052813D0286A20F001002862F7
:10093000286A20F0040002E0286A40F001002862E2
:10094000E06841F2883B98B1FFF7B0FD82460BE0CA
:10095000286A40F004002862EEE700BFFFF7A6FD1A
:10096000A0EB0A0159455AD8286A8007F6D50CE051
:10097000FFF79CFD824605E0FFF798FDA0EB0A011A
:1009800059454CD8286A8007F6D41FB1E86920F091
:100990008050E861E06988B36968C1F38101022988
:1009A00044D00228C6F8608004D0FFF77FFD0446DB
:1009B00038E034E0FFF77AFD074604E0FFF776FD04
:1009C000C01B02282BD828688001F7D4206AB0F514
:1009D000803F05D16868A16820F400300843686052
:1009E000D4E908010843696821F474110843686078
:1009F000C6F86090FFF75AFD044606E025E000BF08
:100A0000FFF754FD001B022809D828688001F7D59C
:100A10001BE000BFFFF74AFD001B022802D903209C
:100A2000BDE8F88F28688001F4D40EE00128F7D0E3
:100A30006868226A00F48031914204D1616A00F44E
:100A40007010884201D00120EAE70020E8E70000AA
:100A50000010024000004242800442422400002074
:100A60000070004010B5401EB0F1807F01D301201E
:100A700010BD4FF0E02460610F21601700F092F884
:100A80000020A06107202061002010BD70B5144E29
:100A9000002520213046FFF7FFFC0028F9D1002473
:100AA000012240213046FFF7FCFC20213046FFF7B1
:100AB000F3FC40EA4505002240213046FFF7F1FCF7
:100AC000641C182CECDB012240213046FFF7E9FCC6
:100AD000002240213046FFF7E4FC85F4000070BDA1
:100AE00000080140FEE7000070B586B000241348FE
:100AF0000094019402940394816941F0040181619E
:100B000080690F4E00F004000490224640213046D8
:100B1000FFF7C7FC202001258DE8310069463046EB
:100B2000FFF7CAFB4020CDE9000569463046CDE914
:100B30000245FFF7C1FB06B070BD00000010024087
:100B400000080140FEE7FEE770477047FFF7B4BCBE
:100B500010B590B028216846FFF736FB14210AA88B
:100B6000FFF732FB022000900120049010200024A7
:100B7000059007946846FFF7E5FD08B172B6FEE7F9
:100B80000F20CDE90A040C940D9400210AA80E94BC
:100B9000FFF71CFD002801D072B6FEE710B010BDB3
:100BA0007047FEE70907090E002804DB00F1E0208A
:100BB00080F80014704700F00F0000F1E02080F88A
:100BC000141D704710B5104C1049204662784088BB
:100BD00042B94B680E4AA36022611A44E260A080C9
:100BE000012262704968E26891420CD3A188401AE0
:100BF00000F030FB074A084B00F0D4F900F0F8F899
:100C000060610020607010BD00000020001000E056
:100C100000350C009A9999999999B93F10B50B4CE8
:100C2000607808B1206910BDFFF730FF00F06EFE5C
:100C3000616800F07FFEA16800F044FDE16800F00B
:100C400045FF034900F0A0FD206110BD28000020F1
:100C5000EA4DBF412DE9F041134C0020134F607065
:100C6000054600BFFFF712FF00F050FE04EB8501C0
:100C70004861616900F02AFF314600F023FD3946E2
:100C800000F082FD6D1C06461E2DEBDB31466069CF
:100C900000F018FD616800F04DFEA16800F012FD43
:100CA000E060BDE8F0810000280000200000F04175
:100CB00010B50B4C002240212046FFF7F2FB012229
:100CC00020212046FFF7EDFB06480121017041700D
:100CD0000549416000218160C160016110BD0000D3
:100CE00000080140280000209CE09B3B2DE9FC5FB0
:100CF00005468846D5E9007000F0B8FC254A264B29
:100D000000F0A8F800F074F800F0B0FCDFF88CB048
:100D1000044600225B46009100F09CF802460B4618
:100D20002046009900F03EF900F062F88246A86083
:100D3000384600F09BFC06460F464046019100F005
:100D400095FC3B46324600F0A7FB8046894650465C
:100D500000F08CFC8A46074642464B4600F092FA69
:100D600002460B463046019900F074F800F040F856
:100D700028603846514600225B46009E00F080FB0A
:100D80002246334600F07EFA00F032F86860BDE893
:100D9000FC9F00009A9999999999B93F0000F03FFA
:100DA000FFF792FBFFF7D4FEFFF79EFEFFF772FA04
:100DB000FFF77EFF0B4900200C4C08600A48012514
:100DC00048606088401C6080FFF7FCFE207810B906
:100DD000FFF740FF2570FFF721FF01460148FFF7AD
:100DE00085FFEEE7B400002000007A4400000020F8
:100DF00021F00042A2F16052B2F5801F01F00043E1
:100E000028BFD2F17F6C0BD95FEA001C43EAC20213
:100E100042EB507018BF704728BF20F001007047A8
:100E2000B2F5801FBCBF184670474FEA410C1CF555
:100E3000001F02D2084600F044BE70B500F0CCFAA4
:100E400000000089FFF7F6BF4FF00040A0F58000DA
:100E50007047000010B591EA030F48BF83F00043CC
:100E600000F12283841A71EB030C05D2121943EBB3
:100E70000C03001B61EB0C01DFF824E14FEA115475
:100E8000A4EB135C1EEA430F18BF9EEA445F73D0C5
:100E900023EA0E03DCF1200E21EA045143F480130F
:100EA00032D322FA0CFE10EB0E0023FA0CFE41EBBB
:100EB0000E01CCF1200E03FA0EFE10EB0E0051F1E4
:100EC0000001B1F5801FCCF1200E32D201EB0451AC
:100ED00012FA0EF2BDE8104058BF7047401C38BFF0
:100EE0005FEA420218BF7047002814BF20F00100DB
:100EF00041F100014FEA410313F5001F38BF70476D
:100F0000A1F1C04100F0B6BA012A43EB0302ACF1F3
:100F1000200CDCF11F0E32BF4FF0000E23FA0CF351
:100F200010EB030041EB0451B4EB115FD0D0A1EB07
:100F3000045101F5801149085FEA300001EB0451CA
:100F40000ED350F1000038BF12FA0EFE08D1BDE8F2
:100F50001040C9E7401C38BF5FEA4202CAD1C3E76C
:100F6000BDE810404FEA410313F5001F38BF70473A
:100F7000A1F1C04100F07EBA9EEA445F08D011EAB8
:100F80005E0FBDE8104004BF01F000410020704733
:100F9000BDE8104070B500F01FFA00BF64FBBE3E14
:100FA0000000E0FF2DE9C04130B4DFF8A0C23CEA08
:100FB000111418BF3CEA131400F0EC8081EA030519
:100FC0001CEA111444EAD57418BF1CEA131500F08A
:100FD000C780A4EB05044FF0004545EAC12145EA6E
:100FE000C32341EA505143EA525304F17F749942BA
:100FF00004F500344FEAC0204FEAC22208BF9042F5
:1010000000F09C804FEA13650FF24016765D4FEAC0
:10101000134506FB05F7C7F1807706FB07F74FEA94
:10102000D737A7FB03687642C8F58038A7FB06CE02
:1010300038BFA8F1010807FB08E64FF0000EA6FB39
:10104000028CE6FB03CEDCF1000CCEF1004E38BF83
:10105000AEF1010EA6FB0C584FF000074FF0000553
:10106000E6FB0E87A1FB08C6A0FB07CE16EB0E061B
:1010700045F10005E1FB076515F1E04E7EBFA4F5E3
:1010800080345FEA46066D4116F1800745F10005A0
:101090004FEA17274FEA066647EA0567A6F1DE46DC
:1010A000B6F1805F4FEA15251FD9384624F0010CB0
:1010B00005EBC471BCF1FE6F01EB0C1102D8F0BC62
:1010C000BDE8008124425CBF01F5801E9EEAC47F1A
:1010D00002D4F0BCBDE80081244238D4F0BCA1F1B8
:1010E000C041BDE8004100F0C5B94FEAD22242EA52
:1010F00043524FEAD323A7FB02864FEAD02040EAAF
:10110000415007FB03661EEA0E0F4FEAD12105FB93
:10111000026658BFA6EB0056B6EB00564FEA520ED9
:101120004EEAC37E18EB0E0E56EB530EBDD518EBF0
:1011300002085E417F1C55F10005B6E74FF48015AB
:101140004FF000074FF000064FF00008ADE7F0BC8D
:101150004FF0000001F1C04101F00041BDE8008105
:1011600011EA0C1F0CEA131500D00CE013EA0C1F57
:1011700000F025804FF00000F0BC81EA030101F08F
:101180000041BDE80081F0BCBDE8004181EA0301F7
:1011900000F070B9F0BCBDE8004170B500F01CF97A
:1011A000097EFC3E00F007B881EA03014FF0000021
:1011B00001F00041704781EA030100F05BB9F0BC27
:1011C000BDE800414FF0000021497047FFFDFBF9E9
:1011D000F7F5F4F2F0EEEDEBE9E8E6E4E3E1E0DE6A
:1011E000DDDBDAD8D7D5D4D3D1D0CFCDCCCBCAC8DC
:1011F000C7C6C5C4C2C1C0BFBEBDBCBBBAB9B8B703
:10120000B6B5B4B3B2B1B0AFAEADACABAAA9A8A8F5
:10121000A7A6A5A4A3A3A2A1A09F9F9E9D9C9C9BC3
:101220009A9999989797969595949393929191906E
:101230008F8F8E8E8D8C8C8B8B8A898988888787FF
:101240008685858484838382828181800000FF0774
:101250000000F87F10F0004248BF4042B0FA80F32F
:1012600010FA03F10AD0C3F11D0303F580634FEABE
:10127000415002EB035202EBD12170474FF00000C6
:1012800070470000DFF848C170B51CEA111E1EBF90
:101290001CEA13159EEA0C0F95EA0C0F00F06F8004
:1012A00081EA030423EA4C134EEAD47E21EA4C116E
:1012B00041F4801143F48013AE44A1FB024CA0FB27
:1012C0000365AEF17F7E361955EB0C05A1FB034C8F
:1012D0004CF10003A0FB021C16EB0C06654153F118
:1012E0000003094218BF46F0010613F4007F0BD13A
:1012F0004FEA03314FEA0530340341EA155140EA21
:1013000016506FF003020AE04FEAC3214FEAC520EE
:10131000F40241EA555140EA56506FF0020202EBE6
:101320002E4201EB025585EACE710AD05FEA440CE9
:1013300018BF24F0004450F1000041F1000120EA00
:10134000D47040F2FE7C624500D270BDA84214BF4A
:101350004FF080444FF04044002E08BF0024BEF1FF
:10136000806FA8BFA1F1C041BDE8704080F28280CB
:101370004FF0000001F1C04101F0004170479EEACA
:101380000C0F0CEA131518BF95EA0C0F06D04FF09E
:10139000000081EA030E0EF0004170BD00F01CF861
:1013A0008900013E00F007B800F009B84FEA430C8D
:1013B0005FEA5C5C08D081EA030100F05BB84FEAA9
:1013C000410C5FEA5C5CF6D14FF0000001497047C8
:1013D0000000FF070000F87F0EF1020E2EF0030E52
:1013E0005EF8046B364205D4012A43EB030515F57C
:1013F000001F12D8012841EB010C1CF5001F0CD86E
:101400000ED14FEAD17C15F5001F0CEB4C0C0CF102
:10141000020C08BF4CEBD37C04E04FF0080C01E059
:101420004FEAD37C0CEB4C0526FA05F606F00706CE
:10143000B6F1040C06D20EEB860CBDE870404CF001
:10144000010C6047DFE80CF0090B02024FF000418D
:101450004FF00000A1F5002170BD1946104601288B
:1014600051EB010418BFD4F5001484BF002001F033
:10147000004170BD0808A0F500114FEA3101704726
:1014800091EA030F10B581F000413FF5EBAC83F01A
:10149000004300F009B8000010B591EA030F48BFFF
:1014A00083F000433FF5DEAC841A71EB030C07D2E6
:1014B00012198CF0004C43EB0C03001B61EB0C0188
:1014C000DFF8A4E14FEA1154A4EB135C1EEA430FCA
:1014D00018BF9EEA445F00F0B08023EA6E035242D8
:1014E00021EA0451C3EB6E0338BF5B1EDCF1200E12
:1014F00025D322FA0CFE10EB0E0043FA0CFE41EB52
:101500000E01CCF1200E03FA0EFE10EB0E0051F18D
:101510000001CCF1200E29D412FA0EF201EB045195
:10152000BDE8104058BF7047401C1CBFB2F1004FCF
:10153000704700280CBF491C20F00100704712EBD7
:10154000020E43EB030218BF4FF0010E4EEA4202B7
:10155000ACF1200CDCF11E0E54D943FA0CFE10EB5A
:101560000E0051F1FF31CCF11E0ED5D50EF1010E5A
:1015700012FA0EFE404141EB010101EB445C5FEACF
:101580005C5C10D910EBDE7001EB045138BFBEF18A
:10159000004FBDE8104018BF704700280CBF491C21
:1015A00020F00100704730D24FEAD42C11F5001121
:1015B00024F400641BD0B1FA81F20B3AA41AA41EE1
:1015C000D2F12003914030FA03F31943904001EB2C
:1015D000CC71002C01EB0451BDE81040A8BF70474E
:1015E00001F1C0414FF0000001F000417047B0FA36
:1015F00080F310FA03F100D110BDE41A173C48053E
:10160000C90AE4E701EB045110BD491001EB045194
:10161000BDE810404FEA300002E04FF00001704793
:101620004A0008BF0042F8D0B2F5001F28BF70473B
:1016300001F000414FF0000070479EEA445F07D080
:1016400011EA5E0FBDE8104004BF00210020704782
:10165000BDE8104070B5FFF7BFFE00BF40DFF63EAB
:1016600083F00041104670470000E0FF43004FEA5E
:10167000D30C4FEA3C0C43401FBF40070CF16051B4
:1016800013F0FE4F70471CF0006F03D100200CF0E8
:10169000004170470CF0004343EA507010B540EA37
:1016A000CC0000F0C8F900BF000000924FEA000132
:1016B000FFF7E0BE4FF000414FF00000A1F5002120
:1016C0007047000090EA010F48BF81F0004100F12F
:1016D0000482421A3CBF801A89184FEAD0524FF058
:1016E0007F4C1CEA410FA2EBD15318BF9CEA026F5A
:1016F00000F03B804FF0004C4CEA00204CEA012106
:1017000021FA03FC10EB0C0C1ED202F1FF325FEA4F
:101710001C2040EBC25038BF70471CF07F0F4FEACF
:10172000400C18BFBCF17F4F38BF7047C3F1200396
:10173000994008BF20F00100BCF17F4F38BF7047CF
:10174000A0F1C04000F0BDB94FEA3C00000A40EBF8
:10175000C25028BF1CF0FF0F4FEA400CE6D018BF64
:10176000BCF17F4F38BF7047EAE79CEA026F05D0B3
:1017700010EA5C0F08BF00F00040704710B500F0A1
:101780005AF900BF64FBBE3E4FF47F0C1CEAD01236
:101790001EBF1CEAD11392EA0C0F93EA0C0F00F063
:1017A000858090EA010F48BF42F4807240F4000C3B
:1017B00041F400002CF07F4120F07F4000B58142D1
:1017C000A2EB03020FF2081CACEB504EC0F100007C
:1017D0009EF800E04FEA4E0E00FB0EFC38BF4900B9
:1017E0004FEA2C1C02F5FA020CFB0EF34FEACE1E58
:1017F0004FEA112C4FEAC1210EEB635E42EB22420D
:101800000EFB0CFC4FEA1C5300FB03114FEA112C9A
:101810004FEA01310EFB0CFC4FEADC4C00FB0C11D3
:10182000C14228BF09184CEB03335DF804EB10EB01
:10183000410143EBC250B2F57C0F38BF704729D548
:1018400012F0F00F1CBF00F1C04000F000407047E4
:10185000008182838485868788898B8C8D8E8F9189
:101860009293959697999A9C9D9FA0A2A3A5A7A8AD
:10187000AAACAEB0B2B3B5B7B9BCBEC0C2C5C7C9D9
:10188000CCCED1D4D7D9DCDFE2E6E9ECF0F3F7FA3D
:10189000FE0000004FEA400C0CF1807CBCF17E4F52
:1018A00028BF7047B0F1C04000F00BB990EA010FBB
:1018B0000CEAD11348BF42F48072624538BF6345D9
:1018C00007D213F47F0F16D080EA010000F0004029
:1018D000704710B500F0AFF8097EFC3E00F005B887
:1018E00080EA010000F00040704780EA010000F04B
:1018F000004000F0E6B812F47F0F04BF02487047C2
:1019000080EA010000F0DDB80000C07FB0FA80F38B
:1019100010FA03F2C3F19D030AD0D90501EB12209E
:10192000530638BF704700F1010008BF20F00100E6
:10193000704700004FF47F0C1CEAD0121EBF1CEA57
:10194000D11392EA0C0F93EA0C0F00F0478090EA53
:10195000010F48BF42F480724FF0004C4CEA002067
:101960004CEA012102EB0302A0FB0113A2F50002E5
:10197000002918BF43F001035B0028BF4FEA33037F
:1019800042EB22425FEA132C4CEBC2502EBFBCEB61
:10199000436FB2F57C0F70474FEA036CBCF1004F08
:1019A00008BF20F00100B2F57C0F38BF70470BD59F
:1019B00082F0FF0212F5803FC8BF704700F1C040BF
:1019C000D8BF00F00040704700F5000C5FEA4C0CF7
:1019D00048BF7047B0F1C04000F073B890EA010F03
:1019E0000CEAD11348BF42F48072624538BF6345A8
:1019F00004D280EA010000F00040704710B500F00A
:101A00001AF800BF8900013E00F007B800F009B8DD
:101A10005FEA410C5FEA1C6C08D080EA010000F02C
:101A200050B85FEA400C5FEA1C6CF6D14FF0004002
:101A3000A0F5800070470EF1020E2EF0030E5EF846
:101A4000044B244204D44FEA4102B2F17F4F11D833
:101A50004FEA4003B3F17F4F0CD80ED14FEAD07C50
:101A6000B2F17F4F0CEB4C0C0CF1020C08BF4CEBAD
:101A7000D17C04E04FF0080C01E04FEAD17C0CEB84
:101A80004C0324FA03F404F00704B4F1040C06D266
:101A90000EEB840CBDE810404CF0010C6047DFE811
:101AA0000CF0070802024FF00040A0F5800010BDC6
:101AB0000846420018BFD2F1807288BF00F0004093
:101AC00010BDFF2141EAD050C005704790EA010FD8
:101AD00048BF81F000413FF5FCAD421A04D882F0C6
:101AE0000042A0EB020011444FEAD0524FF07F4C6D
:101AF0001CEA410FA2EBD15318BF9CEA026F4AD0F7
:101B00004FF0004C4CEA00204CEA012121FA03FC82
:101B1000B0EB0C0C0FD412F0FE0F36D05FEA4C0085
:101B20001DD5001240EBC25038BF70471CF03F0F6C
:101B300018BF70470BE0A2F101025FEA1C2040EBE6
:101B4000C25038BF70471CF07F0F18BF7047C3F1F9
:101B50002003994014BF401E20F001007047800808
:101B60004FEA122308BF7047B0FA80FCA2EB0C02C8
:101B7000CCF1280C60FA0CF093EA122F04BF00EBB2
:101B8000C25070474FEAC3707047130A5FEADC1017
:101B900008BF7047F6E79CEA026F04D010EA5C0FBA
:101BA00008BF0020704710B5FFF745FF40DFF63E45
:101BB00081F000407047010202030405060708098E
:101BC0000A0B0C0D0E0F10100000000000000000AA
:101BD0000102030406070809F81B000800000020A2
:101BE0002800000028010008201C00082800002010
:101BF000F80600004401000800000000000000009A
:101C000000000000000000000000000000000000D4
:101C100001000000100000000000000000127A0027
:04000005080000ED02
:00000001FF
